:020000040000fa
:080000000002040000000000f2
:020000040000fa
:04000800d40200001e
:020000040000fa
:04000c00d40200001a
:020000040000fa
:04001000d402000016
:020000040000fa
:04001400d402000012
:020000040000fa
:04001800d40200000e
:020000040000fa
:04001c00d40200000a
:020000040000fa
:04002000d402000006
:020000040000fa
:04002400d402000002
:020000040000fa
:04002800d4020000fe
:020000040000fa
:04002c00d4020000fa
:020000040000fa
:04003000d4020000f6
:020000040000fa
:04003400d4020000f2
:020000040000fa
:04003800d4020000ee
:020000040000fa
:04003c00d4020000ea
:020000040000fa
:04004000d4020000e6
:020000040000fa
:04004400d4020000e2
:020000040000fa
:04004800d4020000de
:020000040000fa
:04004c00d4020000da
:020000040000fa
:04005000d4020000d6
:020000040000fa
:04005400d4020000d2
:020000040000fa
:04005800d4020000ce
:020000040000fa
:04005c00d4020000ca
:020000040000fa
:04006000d4020000c6
:020000040000fa
:04006400d4020000c2
:020000040000fa
:04006800d4020000be
:020000040000fa
:04006c00d4020000ba
:020000040000fa
:04007000d4020000b6
:020000040000fa
:04007400d4020000b2
:020000040000fa
:04007800d4020000ae
:020000040000fa
:04007c00d4020000aa
:020000040000fa
:04008000d4020000a6
:020000040000fa
:04008400d4020000a2
:020000040000fa
:04008800d40200009e
:020000040000fa
:04008c00d40200009a
:020000040000fa
:04009000d402000096
:020000040000fa
:04009400d402000092
:020000040000fa
:04009800d40200008e
:020000040000fa
:04009c00d40200008a
:020000040000fa
:0400a000d402000086
:020000040000fa
:0400a400d402000082
:020000040000fa
:0400a800d40200007e
:020000040000fa
:0400ac00d40200007a
:020000040000fa
:0400b000d402000076
:020000040000fa
:0400b400d402000072
:020000040000fa
:0400b800d40200006e
:020000040000fa
:0400bc00d40200006a
:020000040000fa
:0400c000d402000066
:020000040000fa
:0400c400d402000062
:020000040000fa
:0400c800d40200005e
:020000040000fa
:0400cc00d40200005a
:020000040000fa
:0400d000d402000056
:020000040000fa
:0400d400d402000052
:020000040000fa
:0400d800d40200004e
:020000040000fa
:0400dc00d40200004a
:020000040000fa
:0400e000d402000046
:020000040000fa
:0400e400d402000042
:020000040000fa
:0400e800d40200003e
:020000040000fa
:0400ec00d40200003a
:020000040000fa
:0400f000d402000036
:020000040000fa
:0400f400d402000032
:020000040000fa
:0400f800d40200002e
:020000040000fa
:0400fc00d40200002a
:020000040000fa
:04010000d402000025
:020000040000fa
:04010400d402000021
:020000040000fa
:04010800d40200001d
:020000040000fa
:04010c00d402000019
:020000040000fa
:04011000d402000015
:020000040000fa
:04011400d402000011
:020000040000fa
:04011800d40200000d
:020000040000fa
:04011c00d402000009
:020000040000fa
:04012000d402000005
:020000040000fa
:04012400d402000001
:020000040000fa
:04012800d4020000fd
:020000040000fa
:04012c00d4020000f9
:020000040000fa
:04013000d4020000f5
:020000040000fa
:04013400d4020000f1
:020000040000fa
:04013800d4020000ed
:020000040000fa
:04013c00d4020000e9
:020000040000fa
:04014000d4020000e5
:020000040000fa
:04014400d4020000e1
:020000040000fa
:04014800d4020000dd
:020000040000fa
:04014c00d4020000d9
:020000040000fa
:04015000d4020000d5
:020000040000fa
:04015400d4020000d1
:020000040000fa
:04015800d4020000cd
:020000040000fa
:04015c00d4020000c9
:020000040000fa
:04016000d4020000c5
:020000040000fa
:04016400d4020000c1
:020000040000fa
:04016800d4020000bd
:020000040000fa
:04016c00d4020000b9
:020000040000fa
:04017000d4020000b5
:020000040000fa
:04017400d4020000b1
:020000040000fa
:04017800d4020000ad
:020000040000fa
:04017c00d4020000a9
:020000040000fa
:04018000d4020000a5
:020000040000fa
:04018400d4020000a1
:020000040000fa
:04018800d40200009d
:020000040000fa
:04018c00d402000099
:020000040000fa
:04019000d402000095
:020000040000fa
:04019400d402000091
:020000040000fa
:04019800d40200008d
:020000040000fa
:04019c00d402000089
:020000040000fa
:04020800d40200001c
:020000040000fa
:04020c00d402000018
:020000040000fa
:04021000d402000014
:020000040000fa
:04021400d402000010
:020000040000fa
:04021800d40200000c
:020000040000fa
:04021c00d402000008
:020000040000fa
:04022000d402000004
:020000040000fa
:04022400d402000000
:020000040000fa
:04022800d4020000fc
:020000040000fa
:04022c00d4020000f8
:020000040000fa
:04023000d4020000f4
:020000040000fa
:04023400d4020000f0
:020000040000fa
:04023800d4020000ec
:020000040000fa
:04023c00d4020000e8
:020000040000fa
:04024000d4020000e4
:020000040000fa
:04024400d4020000e0
:020000040000fa
:04024800d4020000dc
:020000040000fa
:04024c00d4020000d8
:020000040000fa
:04025000d4020000d4
:020000040000fa
:04025400d4020000d0
:020000040000fa
:04025800d4020000cc
:020000040000fa
:04025c00d4020000c8
:020000040000fa
:04026000d4020000c4
:020000040000fa
:04026400d4020000c0
:020000040000fa
:04026800d4020000bc
:020000040000fa
:04026c00d4020000b8
:020000040000fa
:04027000d4020000b4
:020000040000fa
:04027400d4020000b0
:020000040000fa
:04027800d4020000ac
:020000040000fa
:04027c00d4020000a8
:020000040000fa
:04028000d4020000a4
:020000040000fa
:04028400d4020000a0
:020000040000fa
:04028800d40200009c
:020000040000fa
:04028c00d402000098
:020000040000fa
:04029000d402000094
:020000040000fa
:04029400d402000090
:020000040000fa
:04029800d40200008c
:020000040000fa
:04029c00d402000088
:020000040000fa
:0402a000d402000084
:020000040000fa
:0402a400d402000080
:020000040000fa
:0402a800d40200007c
:020000040000fa
:0402ac00d402000078
:020000040000fa
:0402b000d402000074
:020000040000fa
:0402b400d402000070
:020000040000fa
:0402b800d40200006c
:020000040000fa
:0402bc00d402000068
:020000040000fa
:0402c000d402000064
:020000040000fa
:0402c400d402000060
:020000040000fa
:0402c800d40200005c
:020000040000fa
:0402cc00d402000058
:020000040000fa
:0402d000d402000054
:020000040000fa
:0402d400d402000050
:020000040000fa
:0402d800d40200004c
:020000040000fa
:0402dc00d402000048
:020000040000fa
:0402e000d402000044
:020000040000fa
:0402e400d402000040
:020000040000fa
:0402e800d40200003c
:020000040000fa
:0402ec00d402000038
:020000040000fa
:0402f000d402000034
:020000040000fa
:0402f400d402000030
:020000040000fa
:0402f800d40200002c
:020000040000fa
:0402fc00d402000028
:020000040000fa
:04030000d402000023
:020000040000fa
:04030400d40200001f
:020000040000fa
:04030800d40200001b
:020000040000fa
:04030c00d402000017
:020000040000fa
:04031000d402000013
:020000040000fa
:04031400d40200000f
:020000040000fa
:04031800d40200000b
:020000040000fa
:04031c00d402000007
:020000040000fa
:04032000d402000003
:020000040000fa
:04032400d4020000ff
:020000040000fa
:04032800d4020000fb
:020000040000fa
:04032c00d4020000f7
:020000040000fa
:04033000d4020000f3
:020000040000fa
:04033400d4020000ef
:020000040000fa
:04033800d4020000eb
:020000040000fa
:04033c00d4020000e7
:020000040000fa
:04034000d4020000e3
:020000040000fa
:04034400d4020000df
:020000040000fa
:04034800d4020000db
:020000040000fa
:04034c00d4020000d7
:020000040000fa
:04035000d4020000d3
:020000040000fa
:04035400d4020000cf
:020000040000fa
:04035800d4020000cb
:020000040000fa
:04035c00d4020000c7
:020000040000fa
:04036000d4020000c3
:020000040000fa
:04036400d4020000bf
:020000040000fa
:04036800d4020000bb
:020000040000fa
:04036c00d4020000b7
:020000040000fa
:04037000d4020000b3
:020000040000fa
:04037400d4020000af
:020000040000fa
:04037800d4020000ab
:020000040000fa
:04037c00d4020000a7
:020000040000fa
:04038000d4020000a3
:020000040000fa
:04038400d40200009f
:020000040000fa
:04038800d40200009b
:020000040000fa
:04038c00d402000097
:020000040000fa
:04039000d402000093
:020000040000fa
:04039400d40200008f
:020000040000fa
:04039800d40200008b
:020000040000fa
:04039c00d402000087
:020000040000fa
:100400002f8720000e7f24000e01880000000000ce
:10041000000020000000e000020032000001200087
:100420002002880014000700c10007000000e0005f
:1004300003003a0040ef21000100200002003700d5
:100440000000200001002000810f70000100320038
:1004500014000700000020000000e000020032004d
:1004600000000200000000008e1d020000000000dd
:100470000040da000000fe004440a90040032000d4
:100480000000e0000300320000002000a00188000e
:100490004440a800000006008a1f78008b1f7800e7
:1004a0000000060091018800800478000000eb0045
:1004b0001a003700e284440032a0b4009905ba0063
:1004c000e284440032a0b4009906ba00e2844400f9
:1004d00032a0b4000006eb00476fde00fd07b2005b
:1004e000636ce10003003a00ebff07000000eb0043
:1004f0000a003700606ce10004003a00005deb0088
:100500008b05e900fdff3e00040037006168e10053
:10051000010032000086eb000b00070019c7ba008b
:100520001905ba000e04e00003003a000a00e000da
:10053000e0ff3a0000000600fe07b2009e018800be
:100540008a047800f5ff3700395dba008b05e900b1
:100550000c003200295dba008b05e900080032006a
:100560000c00e00003003a00e284440032a0b40032
:10057000f5ff370019ddba008b05e900faff3a00f4
:100580008904e800e184440032a0b40000000600c1
:10059000ea110400000000008e11040000000000b9
:1005a00028110400000000000040da000000fe00f6
:1005b000ec8747008e1f78006c87570044002000ae
:1005c000041f7800000f78006c87570002afbe0050
:1005d000e1bf9f006c805700d90b07001e00be00d2
:1005e0004f077800cf00b10000000600ec874700fd
:1005f0008e1f780011002000a1bf9f006c8757005c
:10060000002f78006c805700cf0b07001e00780089
:100610004f077800cf00b10000000600ec874700cc
:100620008e1f7800e20f500034003e000040800032
:10063000e10f500003003200e20f500011003a00b9
:100640000c003700032220000300e00001003a0004
:100650000040da002002e200020035002822ef000c
:1006600021e2a8002342ab000d003a002342a8007b
:100670000b003700032320000300e00001003a00d4
:100680000040da003002e200020035003822ef00bc
:1006900031e2a8003342ab0001003a003342a80027
:1006a000820178000b0037003102fb00e10f50009f
:1006b00004003a002322ab00feff3a002411880018
:1006c000030037003322ab00feff3a00a41188007c
:1006d0008301e9000300e000f3ff3a00e10f50005e
:1006e00003003a002302ab00feff32000c0037008b
:1006f0003302ab00feff3200090037006c87570061
:1007000033002000031f7800000f7800c1bf9f0056
:10071000d2bf9f006c8057008d0b07005fb9970018
:10072000020078004f077800cf00b10000000600fb
:10073000000005004f89de008201780002013700c9
:10074000038368000700280007036300470ade00f0
:100750000480a100c71ade000580a100f70f200069
:100760000720e100420032000728e100400032008b
:10077000889fbe008a9fbe008c1f7800f107b200e0
:10078000f307b2000400e000640032000170a00032
:100790000500e000680032000370a00085054200fb
:1007a000eb07b1000204b8000302b80084844400df
:1007b00060854a00020ab800848444000a854a0021
:1007c000030ab80004054500040033000804d00003
:1007d0008984d2000a85d2008b05e9006158e100c6
:1007e0003d003500021020000901610003082000cf
:1007f00089816100f7072000878364000886730001
:10080000c84cde00c853dd00878474004855de0004
:100810000300e0000600320082037600040032008c
:100820008904e80060054d000a88a3000c003a0026
:10083000f70f20000758e10044003d000a70a100b6
:10084000c75ddd000a8575008a0073000900780025
:100850004f0678004f05be004f04be0000000600a2
:100860000a05d1008984d3008b05e800f0ff37002a
:10087000881f7800060478009000070007027800bf
:100880000001fd008101fd008c0007008702780057
:10089000850372000778a300050032000001fd0007
:1008a0008101fd009f0007004f0478000000060052
:1008b000850372000748a30003003200f0ff2f00f9
:1008c000f1ff2700f8ff37000000200001f82700a3
:1008d00088807000f4ff3700880178004848dd0008
:1008e000808171004848de00c850dd0001007000c2
:1008f000c850de00060478000b01780016000700df
:1009000088807000d2ff37000500e000050032004b
:10091000170020003a0007009dff37008103700098
:10092000f9ff3a00860078004f0678004f05be00b8
:100930004f04be000000050083037100f9ff320080
:10094000270020002e00070094ff370001f8270041
:1009500086807000f4ff37000100e00026003200be
:10096000610111007810e10023003c006022b80012
:100970007010e1000400350080027800010078006a
:100980008000eb00700151000200e000090034001b
:1009900070031100062add00822ade008603dd00d6
:1009a000878272000200de00860bdd000700700007
:1009b0008208de0084817100f4ff27000482620057
:1009c000848171000400280084826200610260005a
:1009d00005f0a60000000600048271000700320046
:1009e0000000e800e0804800000006000002be00b1
:1009f0006000b800efff37006000b800000006009c
:100a0000889fbe000004eb006138e10016003a0048
:100a10000100e00008003a00c800de004800dd00e8
:100a2000880020000100e00003003a00c800de005a
:100a30004800dd00680444008184cf00e98454004c
:100a4000060034008908dd00f08314008703de000f
:100a5000878070000900dd00090444006102140071
:100a60004f04be00000006000300e00008003a004a
:100a7000c811de004811dd00880020000300e000fe
:100a800003003a00c811de004811dd00680444008c
:100a90008384cf00e9845400060034008919dd0006
:100aa000f08314008713de00878171000911dd00d7
:100ab00009044400e1021400e9ff37002700200088
:100ac00001f0a70017002000470bde00f60fb20070
:100ad000040032000643e8000a0032004702b30077
:100ae0000000060001037800f607b200060370005c
:100af00002003a000703b300000006008702b300bb
:100b00000000060001037800f607b200060370003b
:100b1000020032000770a000000006000760a0007d
:100b2000000006000478a300040032000578a3004a
:100b3000030032000168a30001003a000200be0079
:100b40000160a00000000600881f78000304780000
:100b50000300e00007003d0060001000e080180086
:100b600060011900e081190002003b0001f02d0036
:100b7000030037000400070008f0a70001f0a00000
:100b80004f04780000000600889fbe008a9fbe00c8
:100b9000008270000402710004827100260032009d
:100ba0000004be000200be006011b8006b09200006
:100bb000950220000182cf000a0039000541b100f2
:100bc0000082cf00070039000541b1000982cf0043
:100bd000040039000541b1000882cf00010039004e
:100be0000541b10005425200120032000a003b00ec
:100bf00082817100610164008100d1000080d30016
:100c00008984d3000884d3008b05e8000442e800ff
:100c1000f7ff3a00070037000804440089844c00bd
:100c200000004800818048008b05e9000442e9008b
:100c3000f9ff3a00030007004f05be004f04be0055
:100c40000000060081002000618055000b003d007f
:100c50000b00200061fe2f000100e1001d003400a8
:100c600082817100610164008904d1000884d3008d
:100c70000000e800faff3a00710020006100640003
:100c800003007000020060000900320061044400ab
:100c9000e0844c000988a500050032008b05e800bf
:100ca0006808e10002003a008904d1000884d300fa
:100cb000f20f20000258e10005003d00c75ddd0095
:100cc000f907b2008980750008007800000006006e
:100cd0000bf827008b007800000005000000fa00e8
:100ce000cfb897006881570010408000100078004e
:100cf000b30207000080fa00000006000e00370073
:100d00001140800091007800a2040700110020002b
:100d10000000e000050035001040800090007800e1
:100d2000a000200049050700cf00de000100ea0016
:100d300000000600000006008f04b000889fbe007f
:100d40008a9fbe008c9fbe008e1f7800809f9f00f0
:100d5000f19f9f00c3779f0001007800b0007800ea
:100d6000e1a79f0010007800d0b79f00ff9997007f
:100d7000a3019000d3a79f007f9a970044029000a0
:100d8000f4979f00ff9a9700b50690003204be00ca
:100d90002205be006022b8006033b8000800be0023
:100da0000a01be00d10607000000e00003003d007c
:100db0000bf0a200d0c2b300040037006fa397006d
:100dc0000628a30008003200b0c2b300804e7800ad
:100dd000dfa397008703e900c7af9f001000200042
:100de000f0a79f000f003700efa097000138a30085
:100df0000800320000c2b300804e78005fa1970067
:100e00000201e900c2af9f0013002000f3a79f007a
:100e1000040037005fa29700c4af9f008002eb0080
:100e2000f5a79f000800be000a01be00c1ff070031
:100e3000f4ff2f00f5ff2f00f6ff2f00f7ff27002c
:100e40000402600085826000060361008783610000
:100e50006000b8000200200003ff27000020e1002e
:100e600001a8e10002b0e10003b8e10010003a007f
:100e70004f7397008600fb001104b100ffa3970099
:100e800007804600f98f500002003e0001862000d6
:100e90000100370041862000b00507004086200091
:100ea000f2040700ffa09700010140001400370082
:100eb0000020e10001a8e10002b0e10003b8e10078
:100ec000120036004f7197008200fb001104b10040
:100ed000ffa1970003804600f98f500002003e00fa
:100ee0008186200001003700c18620009b05070095
:100ef000c0862000dd0407007fa2970004014000a7
:100f00006fa29700dfa19700190237006022b80096
:100f10006033b8000800be000a01be007306070077
:100f20000000e000680032006000b800020020000d
:100f300003ff230080af9f0091af9f00a2af9f00ef
:100f4000b3af9f000007eb000802be000a03be001b
:100f5000d4af9f00e5af9f00f6af9f0087b79f001b
:100f6000070037000e07e8000800be000a01be00b7
:100f700080af9f0091af9f00a2af9f00b3af9f00d3
:100f80006022b80006002000470224000fa8970046
:100f90009fa897002fa99700bfa99700be07070039
:100fa0000004be000205be000002be000203be0037
:100fb0005fa89700efa897007fa997008fb19700cf
:100fc0004a0607000000e000e6ff3d000006eb00d7
:100fd0000fac97009fac97002fad9700bfad970067
:100fe0002500370040ed2f00800f570019003d000d
:100ff0000c00e00016003a006022b8000600200055
:10100000073524005fa89700efa897007fa99700f5
:101010008fb19700a00707000002be000203be00c8
:10102000d4af9f00e5af9f00f6af9f0087b79f004a
:101030006022b80006002000073524000800be002a
:101040000a01be00940707000004be000205be00ae
:101050001c0020006022b800060020004702240087
:101060000800be000a01be00dc0607000004be0046
:101070000205be000e07e9000802be000a03be001a
:101080005fa89700efa897007fa997008fb19700fe
:10109000160607000000e000d2ff35000800be0081
:1010a0000a01be0080af9f0091af9f00a2af9f00da
:1010b000b3af9f005fac9700efac97007fad970098
:1010c0008fb59700080037006022b80006002000a6
:1010d00007ff230084af9f0095af9f00a6af9f003e
:1010e000b7af9f000007eb00cf7297000500fb0031
:1010f00021050700d0779f005fb3970060002000b4
:101100000600e000010035005fb0970071c6b30033
:10111000df73970081cf53000a003a00dfb09700d9
:101120000100e0009b0132009b0137008e0f500050
:101130009f013c00d0af9f0052c6b30082cf9f00fa
:101140001e003700df71970083cf9f000200370039
:1011500064c6b30084cf9f000000e800d0af9f00ba
:1011600060c6b3008fca970080cf520013003a00c8
:101170000e00e00008003d006000b8000200200002
:1011800003ff230080af9f0091af9f00a2af9f009d
:10119000b3af9f000007eb0061c6b30081cf9f0093
:1011a00070c6b3005f719700804f5100030032009a
:1011b000dfa997008e814100d3af9f000faa97004f
:1011c0009faa97002fab9700bfab970094b79f00e3
:1011d000a5b79f00b6b79f00c7b79f000800be0025
:1011e0000a01be00d0b79f00e1b79f00f2b79f0091
:1011f00083bf9f000006eb000802be000a03be008a
:10120000b49f9f00c59f9f00d69f9f00e79f9f00b0
:10121000310037001fb29700afb297003fb397007d
:10122000cfb397005fb09700efb097007fb1970002
:101230008fb9970069060700c70807000004be00c1
:101240000205be00cd0507008002780085a79f003b
:101250001fb29700afb297003fb39700cfb397008c
:101260000800be000a01be000b0707005fb297002e
:10127000efb297007fb397008fbb97000606070079
:101280000002be000203be0007f0a200d4b79f0018
:10129000e5b79f00f6b79f0087bf9f006022b800a8
:1012a00006002000470224001fb09700afb097004f
:1012b0003fb19700cfb19700480607000002be007b
:1012c0000203be0094b79f00a5b79f00b6b79f006a
:1012d000c7b79f000c06e800dfaa9700850f5600ed
:1012e000ccff35003f9c9700cf9c97005f9d9700f7
:1012f000ef9d97006022b8000600200047012400ff
:101300001fb09700afb097003fb19700cfb19700e3
:10131000e10607000002be000203be0094b79f0072
:10132000a5b79f00b6b79f00c7b79f005fb09700f3
:10133000efb097007fb197008fb997006b0507005a
:101340000000e0000f0035001fb29700afb2970019
:101350003fb39700cfb397005fb09700efb097000f
:101360007fb197008fb99700600507000000e0008b
:1013700011003a008fa297000508a3000800320070
:101380000d0037006000b8006011b80090b79f00f2
:10139000a1b79f00b2b79f00c3b79f0006003700f8
:1013a0006022b8006033b80094b79f00a5b79f00d3
:1013b000b6b79f00c7b79f001fb29700afb29700a4
:1013c0003fb39700cfb397000800be000a01be00ec
:1013d000b70507000002be000203be0084a79f00fd
:1013e00095a79f00a6a79f00b7a79f0050c6b30070
:1013f0008fca970080cf520003003a000003eb0031
:10140000d6b79f0001003700deb79f007fa6970088
:101410000000eb0090b79f00909f9f00b09f9f003f
:101420008e007800e1979f00660037000faa9700b2
:101430009faa97002fab9700bfab97000fa0970014
:101440009fa097002fa19700bfa19700e305070079
:10145000410807000004be000205be004705070062
:1014600000017800efa197000348a3000c003a00a8
:101470000200e0000a003a0070c6b3005f729700f5
:10148000804f520006003a00dfb297000500e000ee
:1014900003003d001fb397000607e8002000370057
:1014a0009f9b97000700e0000b003a005fb0970099
:1014b0000000e00008003d00e0c2b30080767e003e
:1014c0000c06e800cfa897008100e900c1af9f009b
:1014d00013002000939f9f008c8046001fb7970049
:1014e0000300370000c3b300805878000e07e900fe
:1014f0000e00e000fbff3a001fb297000406460012
:101500000c80460005c3b300054841000c06e80006
:101510000480ea004fab970000034300c6af9f0072
:101520000faa97009faa97002fab9700bfab970019
:101530000800be000a01be00570607000fa2970070
:101540009fa297002fa39700bfa397005205070003
:101550000002be000203be0007f0a20084a79f00a5
:1015600095a79f00a6a79f00b7a79f006022b8007d
:1015700006002000470224000fa897009fa89700ac
:101580002fa99700bfa99700940507000002be008d
:101590000203be0084af9f0095af9f00a6af9f00df
:1015a000b7af9f00dfb297008502e900d5b79f0073
:1015b0003f9b97000603e800b69f9f008e037800cc
:1015c00097b79f003f989700dfa89700810f5000c2
:1015d00005003d007f999700420090006500500093
:1015e000800f560091ff39006f9797009f999700e1
:1015f0000300e00006003a006fa297000448a30031
:1016000003003200e0c2b30080767e000c06e800e2
:101610000c8046000048eb0051c6b3008fca97000b
:1016200081cf520036003a007f9397008600e90090
:10163000018146000049eb008001eb000e00e00054
:1016400002003d000e07ea001300200022002000e7
:1016500081037800cfaa9700000478000b003700c0
:1016600081037800a4002000110009000407d800bd
:1016700001027800000778000783460000c3b3002a
:10168000004b42000201e9008502e9008700e90001
:101690000e00e000f2ff3a000200e000f0ff3c0024
:1016a000c5af9f000800780001824600b2c2b300b7
:1016b0000300e00001003200d2c2b300024a780009
:1016c0000101e90082804600cf7197000302fb0010
:1016d0001404b10053c6b300f90f520001003e00dc
:1016e00053c4b300834878004faa97000482e900ee
:1016f000c4af9f00820f560001003100970307001e
:10170000efa2970063806200e20f500013003a00de
:101710004fab97000600e000100034000d00780089
:10172000d202070004003700cfab97008780460045
:10173000ed7078000000e900ffa19700830f5000d2
:10174000f9ff3100038046004fa9970001032000f4
:10175000430207000002eb00d4a79f000d007800b1
:10176000c20207006fa29700dfa197000001780076
:101770008d0078000f989700330007004f0778001e
:101780004f06be004f05be004f04be008f04b100df
:101790000000060010002000e40f470063fe3d003b
:1017a000d0af9f0055c6b30085cf9f0083fe3700a2
:1017b0000e00e00066fe3500d0af9f0076fe3700d9
:1017c0000200fa00881f780000047800e2bf9f0042
:1017d0006481570008007800ce010700980090004f
:1017e0000148a300010032000080eb004f047800a4
:1017f0000080fa0000000600889fbe008a1f780063
:10180000800478004900900002047800800f5400a2
:101810000100360000047800080178006a85440061
:101820001a007800070207001a004400000d780033
:10183000e8844400990c14000048eb004f05780040
:101840004f04be0000000600f2874700889fbe00dc
:101850008a9fbe008c9fbe008e1f78008004780097
:1018600001057800020478008305780061076200b2
:1018700002003a008b0f540008003900080178007c
:101880008a00780009007800a60207008b0f540038
:1018900002003900880578001e00370008865500d0
:1018a0000c017800f00f5600010036000201200004
:1018b000010220007e805700e90107008c067800b5
:1018c0000500370002012000fe8057000900780063
:1018d00094020700f0865600ef8f5600f9ff3e0095
:1018e0004461de0000ff2f000091b90002014600b4
:1018f000fe805700090078008a0207000e00e00011
:1019000004003a00080178008a0078000900780095
:10191000840207000b0078004f0778004f06be00d6
:101920004f05be004f04be002f01b10000000600ad
:10193000000005000000050000000500000178001f
:101940000040eb008080fb0081804000a3842000e9
:1019500063c278000404e00003003a00b084200071
:1019600060c078000000060092017800934f52009a
:1019700004003a00b084200060c078000309e80049
:10198000010037000040e800ea4f5000edff36004c
:1019900000000600f6874700889fbe008a9fbe00b1
:1019a0008c9fbe008e1f78008004780001047800b0
:1019b00083057800040678000000eb00c0b79f00a4
:1019c0008080eb00d1b79f00e0b79f00f2b79f0087
:1019d0000008200080bf9f00980078000100780078
:1019e0000005eb00010037000a05e80030417800ef
:1019f0000204e0000300320053c2b300834f5100e1
:101a0000f9ff3a000a00e000040032000a01780001
:101a10000900780043020700180c450018077800f9
:101a200050c2b3009e4f100033013a000e07e80089
:101a30000e0c780010003700cfb097000100a00016
:101a40000b003700cfb097000110a000080037004e
:101a5000cfb097000120a00005003700cfb097005d
:101a60000130a00002003700cfb097000140a00075
:101a7000c1b79f00000ce800180078009040780083
:101a8000b2c2b30082cf5000f1ff320007003c0029
:101a900002c2b30082cf5000f0ff320032c2b30066
:101aa00082cf500007003a00efff3700d2c2b300e8
:101ab00082cf5000e0ff320002c3b30082cf50005b
:101ac000e0ff3200a2c2b30082cf50000d003a0006
:101ad000000ce8001c80e900000e7800100078007f
:101ae000e0b79f000000e0000f003d00cfb097007e
:101af0000100a200c1b79f000000ea00e0b79f000c
:101b0000090037006f020700e0b79f0001003700af
:101b1000000ce800180078009000fb000103b10001
:101b2000e98f5000faff36004fb097000008a3007d
:101b3000020032000010a100c0b79f00180078001a
:101b4000e1c2b30090cf100016003a008000eb0015
:101b5000d1b79f000000e800000c7800a1c2b300dc
:101b600090cf100006003a00000ce8001c80e9004d
:101b7000000e780010007800d0b79f0009003700f1
:101b800050020700d0b79f0001003700000ce800aa
:101b9000180078009000fb000103b100e98f5000ad
:101ba000faff36000800780064ff070080467800de
:101bb000180078001000fb006f020700910620005b
:101bc000810f50003800320012003c004106200016
:101bd000810f5000340032000a003c001106200042
:101be000810f50002000320031062000810f50008c
:101bf0009a00320051022000810f5000ae003a00de
:101c0000a700370071062000810f5000aa003c0099
:101c10008200370001072000810f50005c00320075
:101c200007003c00e1062000810f500074003200e4
:101c3000f1062000810f50009f003a003900370064
:101c400051072000810f500027003200810720003b
:101c5000810f50004200320031072000810f5000f8
:101c600095003a00850037008d80fb000c0178005c
:101c700000fe2f000f004000460207000000e000b9
:101c80009c00320018007800000ce80090417800b9
:101c900002fe2f000f014100f88057000900780074
:101ca00024ff07000e0037008d80fb008c017800b8
:101cb0001200200000fe2f000f0040005402070019
:101cc0000000e0008b003200180ce80002fe2f003c
:101cd0000f014100f88057000900780014ff070049
:101ce00000054500840037008d80fb008c017800e2
:101cf0000001eb0000fe2f000f004000440207002f
:101d00000000e0007b003200180ce80002fe2f000b
:101d10000f014100f88057000900780004ff070018
:101d2000efff37008d80fb008c0178000001eb0095
:101d300000fe2f000f004000350207000000e00009
:101d40006c003200180ce80002fe2f000f01410069
:101d5000f880570009007800f5fe0700e0ff370023
:101d60008d80fb008c0178000001eb0000fe2f004d
:101d70000f004000260207000000e0005d00320076
:101d800018007800000ce800904178001600370039
:101d90008c0178000001eb00010f200000fe2f00f5
:101da0000f0040001a0207000000e000510032005e
:101db000180ce8000fb097009fb097002fb1970064
:101dc000bfb19700e00f5000e08f5800e00f5900be
:101dd000e08f590003003a008001eb0042842000ac
:101de0004000370083c7b30002fe2f000f014100ff
:101df000f880570009007800cefe0700b8ff3700d2
:101e00000b0145008d80fb008c01780000fe2f0047
:101e10000f00400057020700360037008d80fb009e
:101e20000c01780000fe2f000f004000d9010700d0
:101e30000000e0002f00320018007800000ce800dd
:101e40009041780002fe2f000f014100f8805700fa
:101e500009007800b8fb0700a1ff370000c8b300f5
:101e600080cf560023003a00180ce8001c80e900df
:101e7000000e7800104078000d00370000c8b30055
:101e800080cf56001b003a00180ce8001c80e900c7
:101e9000000e78008001eb0010017800110037007f
:101ea00001c8b30081cf560012003a00180ce800b8
:101eb000e0df9f000800370050c2b300e0df9f0062
:101ec0000e0c78000000eb00c0b79f00e0b79f0049
:101ed0008080eb00d1b79f0013002000e2fd2f00af
:101ee0000f014100f88057000900780092fe0700ba
:101ef0007bff3700180ce8000a0078004f077800d5
:101f00004f06be004f05be004f04be006f01b1007a
:101f1000000006008200fa00889fbe008a1f780039
:101f20000005780082047800c13f9f000004eb00a8
:101f3000100037000902780088017800a2f72f000e
:101f40000f01410081f72f008f8040000a007800c8
:101f500090fe070008004000880f500004003d007c
:101f6000b0042000804388000084eb0004003700a8
:101f7000000478004f3897001004e000edff3a00ad
:101f8000080078004f0578004f04be000080fa007a
:101f900000000600889fbe008a1f78008004780039
:101fa0000105780009007800b000070000047800ff
:101fb0008a017800080178001100200009007800eb
:101fc0000a000700800078000080eb00888f500036
:101fd00001003a000000eb004f0578004f04be00fe
:101fe00000000600100078008cf93700889fbe00c2
:101ff0008a9fbe00810478000204780009c5b900f8
:102000000900e00001003a000004eb000a0178003a
:102010008000780003007800f2ff0700800078005d
:102020008a8f500003003200110009008980d80017
:1020300000047800080078004f05be004f04be0081
:10204000000006008001780002003700b1597800d6
:102050000201e9000200e000fcff3a000000060077
:10206000889fbe008a9fbe00800478000200e000c6
:102070005a00320001407800814c7800828144008f
:10208000f1f99f00e20f510054003600914498008e
:10209000a1449800e1f99f00d1f99f00e60f51009b
:1020a0004e003600b1449800c1f99f00e80f51007e
:1020b0004a0036000905ea00630565000a84440009
:1020c0000a055100c1ff2f00010565000080fb00db
:1020d0008000eb001210200013102000680207009f
:1020e000008cbe000a01440060b99f0071b99f00d6
:1020f000e80f55003900360020049800310498009c
:10210000400498005104980020b99f0031b99f0005
:1021100040b99f0051b99f00f80f55002f003600bd
:102120006004980071049800000c9800110c98004d
:10213000200c9800310c9800400c9800510c98002d
:1021400020b19f0031b19f0040b19f0051b19f006d
:1021500060b19f0071b19f0000b99f0011b99f004d
:102160006401640078014100020444000205550046
:102170006011b8000203be000002be000403be00ee
:102180006022b800000072008180720002017300ba
:10219000838173000f00370008027800009abe00a8
:1021a000029abe00009abe000292be00000c980087
:1021b000110c9800220c9800330c9800400c9800e9
:1021c000510c9800620c9800730c98000a02b10040
:1021d0000802b000ff0f5500efff3e000900780035
:1021e0004f05be004f04be00000006000200fa00ca
:1021f0000001780001007800e2ff9f00900090004d
:102200000188a30006003200ea0140009300780034
:10221000825878000280fb008109780009003700ad
:10222000120020008f80e9006eff07008000780018
:102230000080eb000100e00002003200eff89700a0
:102240000180fb000080fa0000000600e7ff370075
:10225000000006008080200000000600fdff07004f
:102260003040880020408800000006008000780090
:10227000040037003104e00002003a000000510081
:1022800000000600010178000108a300f9ff3a00f0
:102290008101780031017800f4ef2f000202420042
:1022a0000281ea00020162000408280004016100c2
:1022b000f7ff320083007800010178003104e0006c
:1022c000fdff3a000000510000000600889fbe009c
:1022d0008a1f78008004780049009000020478008a
:1022e000800f5400010036000004780008017800d7
:1022f0006a8544001a00780052ff07001a00440063
:10230000000d7800e8844400990c14000048eb00ac
:102310004f0578004f04be00000006001000780052
:10232000bef83700900190000388a300010032003e
:10233000e6ff37000348a30001003a0029ff070029
:1023400000000600889fbe008a1f78000004780005
:10235000010578000000eb000800e0001a003200e0
:10236000180090000058a3000c003200ea0444005a
:1023700068009000990f100008003600b80990001e
:102380000001eb00820078000800780003000100e3
:102390000080eb001900e0000b00320074004400e4
:1023a0000008eb006c0044000008eb006a004400e9
:1023b0000008eb000000eb000a00e0000200320021
:1023c0001800780089f807004f0578004f04be0018
:1023d00000000600889fbe008a1f78000004be002f
:1023e0000000eb000800e000290032001800900017
:1023f0000058a300120032006a05440068009000f3
:102400009a0f100008003600b80990000001eb0098
:102410008200780008007800030001000080eb00d3
:102420001a00e0001a003200740044000008eb00bb
:102430006c0044000008eb006a0044000008eb0058
:10244000780a900008109000800f520006003100ba
:102450000002520011002000cfa2de00612bb90063
:102460001800780052f80700000220000800400021
:102470000008eb007e0044000008eb000000eb00c9
:102480000900e000020032001800780057f8070049
:102490004f0578004f04be00000006008000780061
:1024a0001000200002022000828f50000400320041
:1024b000e9805000e48f5000010036000000eb007e
:1024c00000000600889fbe008a1f78008004780004
:1024d0000904780088047800394578000a00fb0078
:1024e000eeff07000000e000f9ff3a00b0c2b300c1
:1024f000804f550005003200d0c2b3008000eb00d1
:10250000804f550005003a00020037008000eb00c4
:1025100001003700110020000804e8000000eb0073
:10252000030037006a02b900020052000003b00045
:102530003801fb0003fd2f0082814100e98f51002b
:10254000f8ff36000100e00001003a000000ea0058
:102550004f0578004f04be0000000600881f780079
:102560000004780008007800bc000700080078002c
:102570004f04780000000600f1fb2f00808040002f
:10258000f98f500001003e000050a000000006003e
:10259000f9ff3700881f7800000478000008200049
:1025a000808f50001700350010082000808f5000e9
:1025b0000b00340030082000808f500011003a00da
:1025c0009200780068805000000978003002be0058
:1025d0002003be00049cbe000694be000700370026
:1025e0009202780064805200000978001000be005a
:1025f000c3000700009cbe000294be001000200033
:10260000010037000000eb004f04780000000600d6
:1026100084082000848f50001d0032000d003c0013
:1026200014082000848f50002700320002003c0074
:10263000040820000400370024082000848f500084
:102640002a00320044082000848f500048003a00dd
:102650003b003700040a2000848f50002c00320019
:1026600004003c0004092000848f500040003a0020
:102670002d003700020c2000828f50001e00320017
:10268000020f2000828f500039003a0030003700de
:102690009380e9000200e000050032008109780023
:1026a0001102fb00cfa2de00612bb9002d00370024
:1026b00081097800114278000482fb008002eb005f
:1026c0006033b8002700370013027800e40052009e
:1026d0000200e0000a003200810978001102be0009
:1026e0004fabde00860378001e00370093027800af
:1026f000e88052000e00370093027800e480520018
:10270000810978001102be006033b800150037005f
:102710009380e9008109780011027800cfa2de00e1
:10272000612bb9000f00370013037800e800530055
:10273000810978003102be002103be000900370084
:102740009380e9000200e00002003200f1ff370050
:102750009380e90081097800110278008002eb0083
:102760006033b8000498be000690be00100005005b
:102770000000050044082000848f5000270032002c
:102780000a003c0014082000848f50001c00320016
:1027900024082000848f5000260032000408200006
:1027a000848f50002c003a001c00370004092000e0
:1027b000848f50001f00320004003c008408200079
:1027c000848f500024003a0007003700040a2000dc
:1027d000848f500011003200040c2000848f5000c0
:1027e0001d003a00060037009380e9008109780057
:1027f00091007800010878008248780015003700c1
:102800009380e90081097800910078000108780040
:10281000cf91de008288be000e0037009380e90071
:10282000810978009100780001087800820878001a
:10283000080037009380e900810978009100780052
:10284000010878006112b900612bb9008498be00bc
:102850008690be0010000500000005000101780010
:1028600080017800008268000408a300050032009f
:102870001300370032407800805978000004e000ef
:1028800014003200030278000208a300f9ff3a00a6
:1028900003007800010037000318780082007800f8
:1028a000b2017800f5ef2f00838242000382ea0034
:1028b000048262000508280005026200f6ff32006b
:1028c0000002780031417800025878000204e000ec
:1028d000fbff3a000400780000000600000006003c
:1028e0005efe0700fdff0700fcff37008f1fd100d1
:1028f0008a0207008f87e9000000e0000000060060
:1029000081037800490007000001be006000b800a4
:102910000478a30013003a006220e10015003e0095
:102920000d0039008301d1000281d3008180d300e2
:102930008301d1000281d3008180d3008301d100c3
:102940000281d3008180d3000538b000c42add00a5
:10295000f300b2008381720007f0a70003f0a0002b
:102960000000060083ff2700020020006110b9006c
:10297000f9ff370003ff2700f7ff37001400fa00c4
:10298000889fbe008a9fbe008c9fbe000004be00d0
:102990000205be00680047000a90be000890be0015
:1029a000990207000070a7000bf0a100304320003f
:1029b0009e02900080825200b0fe2f000028e100ad
:1029c00011003d00b0fc2f000028e100150034008c
:1029d0001e0990008e0890007e0090000501b00056
:1029e0000201d1008180d3000080d3008502e8007d
:1029f000fbff3a000b00e000be023b00600010004d
:102a0000e0801800bb023700f0ff2f00f1ff270025
:102a10000b00e000b7023b0001002800000020008e
:102a2000b40237006000b800b2023700c70ade0007
:102a3000f107b200f50fb20008003200e1cf42000a
:102a4000020032000170a00024000500810f700018
:102a5000010032000408050044000500810f7000e9
:102a600002003a00140005008502e9000000400061
:102a700081c04800fcff3b000170a000240005005d
:102a8000020ab900001bb9000200b8008100420030
:102a900081004300000006008c9fbe008a9fbe009c
:102aa000889fbe00ca0107000bf0a2000400370097
:102ab0008c9fbe008a9fbe00889fbe00c401070095
:102ac0000c48e1000b003a000c40e100020032002b
:102ad0008b010700400037008b066d003e0032007e
:102ae0000af0a100f3012000f2ff2f006110b900ed
:102af000390037000c40e100370032000940e100a6
:102b0000010036007e0107008a856d00cf5dde0082
:102b10000b0575000006eb008804fd0089045400d5
:102b2000010032007d0107000a04e00011003a00b4
:102b30000800e000280032000400400085804800c2
:102b400006014900878149000358a300180032009c
:102b50008301d1000281d3008180d3000080d300a3
:102b60000c86d30001003900610676000804e800f5
:102b700018003700040050008580580006015900f5
:102b800087815900060031000af0a2000c06ea0015
:102b900060001800e080180060011900e081190051
:102ba00003003a000004eb000005eb000a003700c8
:102bb0000348a30007003a000c0646000000480046
:102bc0008180480002014900838149000804e9002e
:102bd000f7ff3700af013700c90137008c9fbe00f7
:102be0008a9fbe00889fbe00790107000b056d001b
:102bf0000940e1000a003a000800e000020032004b
:102c00000c40e10006003a000af0a1000c04780034
:102c1000f3012000f2ff2f006110b9009d00370082
:102c20000c40e1009b0032000800e00099003200f7
:102c30000c48e10002003a000004eb0003003700fa
:102c40000900e00004003a000c0478006000b800bd
:102c50006011b8008f0037000348a30006003a0057
:102c60000000400081804800020149008381490042
:102c70000804e900f8ff37000748a30006003a00ff
:102c80000402420085824a0006034b0087834b0002
:102c90008904e900f8ff3700fd3f20008d845400cf
:102ca000090454008a1f7800881f78000004780007
:102cb0008104780002057800830578006000b80080
:102cc0006011b8000d04200005003700080444001e
:102cd00089844c000a054d008b854d0008003100a9
:102ce0000404540085845c0006055d0087855d0052
:102cf0008381d2008d06d300f4ff3b00070037002c
:102d00000404440085844c0006054d0087854d0071
:102d10008381d2008d06d300ecff3b000804440001
:102d200089844c000a054d008b854d000800310058
:102d30000404540085845c0006055d0087855d0001
:102d40000281d2008d06d300f4ff3b00070037005c
:102d50000404440085844c0006054d0087854d0021
:102d60000281d2008d06d300ecff3b000804440032
:102d700089844c000a054d008b854d000800310008
:102d80000404540085845c0006055d0087855d00b1
:102d90008180d2008d06d300f4ff3b00070037008e
:102da0000404440085844c0006054d0087854d00d1
:102db0008180d2008d06d300ecff3b000804440064
:102dc00089844c000a054d008b854d0008003100b8
:102dd0000404540085845c0006055d0087855d0061
:102de0000080d2008d06d300f4ff3b0007003700bf
:102df0000404440085844c0006054d0087854d0081
:102e00000080d2008d06d300ecff3b000b00e000f9
:102e100004003d000404440085844c0006054d0078
:102e200087854d000006eb008301d1000281d300ad
:102e30008180d3000080d3000c86d3008301d100b1
:102e40000281d3008180d3000080d3000c86d300a0
:102e5000890474008b0575008b84740001003200b6
:102e6000610676004f0478004f0578000348a30000
:102e700007003a000c064600000048008180480028
:102e800002014900838149000804e900f7ff370087
:102e9000000137001a0137008c9fbe008a9fbe00d8
:102ea000889fbe00ca0007000b056d008a057800e8
:102eb0000c40e10008003a000900e00082003a00fe
:102ec0000af0a1000c047800f3012000f2ff2f00ab
:102ed0006110b9007c0037000c48e10004003a00a2
:102ee000870007000900e00077003a00f4ff370090
:102ef0000800e000740032000900e00002003a001f
:102f00007f00070070003700ed3f20008d845400e3
:102f1000090444008a1f7800881f7800871f780002
:102f2000861f7800851f7800841f7800cb19dd008c
:102f3000c515de008b8571004b11dd00450dde00ef
:102f40000a057100cb08dd00c504de00898470002d
:102f50004b04dd000440b8000546b8008c804000fa
:102f600060814e00044eb8008c8040000d01490085
:102f70008001eb000318ad000456b8000c014100bd
:102f80008d8149000002eb000420ad000646b80028
:102f90000c0141008d81490060024a00054eb800d5
:102fa0000c0141008d81490060024a000556b800bd
:102fb0008c8141000d024a008002eb000528ad0023
:102fc0000746b8008c8141000d024a00e0824a00a9
:102fd000064eb8008c8141000d024a00e0824a0092
:102fe0004f0678000c5eb8008c8141000d024a004b
:102ff000e0824a000656b8000c0242008d824a0068
:103000000003eb000630ad00074eb8000c02420092
:103010008d824a0060034b004f0678000c5eb800ba
:103020000c0242008d824a0060034b000756b80034
:103030008c8242000d034b008003eb000738ad008b
:103040004f0678000c5eb8008c8242000d034b00e6
:10305000e0834b004f0678000c5eb8000c03430081
:103060008d834b004f0478004f0578000748a3007c
:103070000a003a0000004000818048000201490037
:103080008381490004024a0085824a0006034b00fe
:1030900087834b000804e900f4ff3700030678003b
:1030a000808070008280700001003200610676002e
:1030b0008701780006017800850078000400780018
:1030c00088047800780037008d0037008c064600b1
:1030d00002003a000000a600000006006000480060
:1030e000e080480060014900e08149000350a600eb
:1030f000000006008301d1000804e800000006007b
:103100000002fd008102fd000203fd008303fd00bb
:103110008804fd008a05fd00000006007048e100fb
:103120001a0039007d0320000d48e1000a00390033
:1031300081057000830671008c8575008d85750092
:103140000006eb000cd8e700610676006000b800ce
:103150006011b800000006007048e1000b00390063
:103160008c05780000067800010078008200780065
:10317000030178008001eb0003d8e70061067600c8
:10318000f0845400f4ff3a00000006006160e100a2
:103190000c48ad00f08514008b06dd000966de00ea
:1031a0000d0676008b0edd000900de000d007000bc
:1031b0008b16dd008908de008d8070008b1edd001f
:1031c0000911de000d0171008919de000000060002
:1031d0000d002800fc7f20000d856100441cde00ee
:1031e000ef8161000c046400010032000340a00084
:1031f0008d856300c43cde00ef8363008c84640033
:10320000010032000740a0000c40e10006003a0037
:10321000ef86610082867600818676008086760061
:1032200001003200180037000c48e10007003a00a6
:10323000ef86630086867600858676008486760033
:1032400002003200aeff07000f0037000348a30062
:1032500005003a008106700082867600838676003b
:10326000010032000804e8000748a30005003a0006
:103270008506720086867600878676000100320019
:103280008904e80000000600cf047800cf0578002c
:103290001b003700000278008102780002037800ea
:1032a00083037800880478000cf0a70087ff0700ec
:1032b000fd7f20000d40e100040035000d04780082
:1032c0006000b8006011b8000d0037000800e00091
:1032d0000b003c00040078008500780006017800af
:1032e00087017800e18414008cff07000cf0a70030
:1032f00076ff07000004eb000340a7000804e80085
:103300004444dd006fc56100880175004f04be00b4
:103310004f05be004f06be0000000600889fbe009d
:103320008a9fbe008c9fbe000404be000605be003e
:10333000809fbe00829fbe00210007000406780027
:103340000800be000a01be001d00070084067800c8
:103350004f03be004f02be008d4f76007fb0970036
:1033600013003300f0ff2f008b8f6b0006003b0033
:103370000d0666000c00a7000a00370007f0a60043
:10338000100020000a003700880f5200898f5a0071
:103390008a0f5b008b8f5b00030039001000200058
:1033a00001003e000000200007f0a7000000ea0036
:1033b0004f06be004f05be004f04be0000000600d1
:1033c00005ff270005826100070032000428e100a4
:1033d00001003200240005000600070001003a0049
:1033e000440005000408050002000700f9ff3a0048
:1033f000140005006f826100810270008502710077
:103400008502720000000600800078005002be00b5
:103410005003be004439de00f700b200f37f200005
:1034200003016100090032000218e10016003a00b1
:1034300085017200830173008381730000082000fe
:1034400015003a004000200013003700850172008b
:10345000830173008381730005003a0004a8be0055
:1034600006a8be00100020000b0037000201e90092
:103470000402420085824a0006034b0087834b000a
:103480000748a300f9ff32000740a00004a8be00cf
:1034900006a8be002000200080009800920098003e
:1034a00000000600680447000294be000094be00bd
:1034b000fc0447008694be008494be000900780096
:1034c000d1ff070008007800cfff070099007800bf
:1034d000814f70000b003b000800be000a0007008f
:1034e0004f00b10003003700f3ff2700f2ff2f0069
:1034f0006110b9004f06be004f05be004f04be006c
:103500000080fa0000000600e48240001078a3006a
:1035100007003200640240001178a3003400be00ae
:103520001401be00040032000330a70000000600b2
:103530003500be001501be000330a00000000600eb
:1035400000c0da000000060000c0da00000006003b
:1035500000c0da00000006001800fa00889fbe00d4
:103560008a9fbe008c1f78000004be000205be00ca
:103570000802be000a03be00443ade00f07f2000cd
:103580000006620020432000800f560067003c00c8
:103590006022b8006033b8000800be00d3fc07000a
:1035a0000000e000610032000802be000a03be0015
:1035b000b4b79f00c5b79f00d6b79f00e7b79f007d
:1035c000e00f5200e08f5a00e00f5b00e08f5b00dd
:1035d0000b003d006022b8000600200007332400e5
:1035e0000800be000a01be002bfd07006022b800e3
:1035f00006002000073324002dfd07000a003700d5
:103600006022b80006002000073324000800be0036
:103610000a01be0026fd07006022b8000600200057
:10362000073324001cfd07000802be000a03be0089
:1036300019fd07000002be000203be00f4b79f00a0
:1036400085bf9f0096bf9f00a7bf9f00e03f20005f
:10365000800f560017003c007fb097008fb897008e
:103660001fb99700afb99700f0af9f0081b79f00d7
:1036700092b79f00a3b79f006044b8006055b800a0
:103680003fb29700cfb297005fb39700efb39700b8
:10369000e00f5200e08f5a00e00f5b00e08f5b000c
:1036a00022003d006044b8000a0020000bff2b0000
:1036b0001e0037006022b8006033b8007fb097006a
:1036c0008fb897001fb99700afb997001e00070089
:1036d0000000e0000c0034007fb297008fba970022
:1036e0001fbb9700afbb97000800be000a01be00d9
:1036f000effc07006022b8000600200007ff23004f
:10370000e5fc0700070037007fb297008fba9700eb
:103710001fbb9700afbb97000800be000a01be00a8
:10372000e3fc07000004be000205be000800be0066
:103730000a01be004f0678004f05be004f04be00d0
:103740000080fa0000000600809feb00f3fe0700f7
:0c3750008f87e9000000e0000000060088
:020000040000fa
:10375c00534300005620000046610000756c0000c9
:10376c007400000053430000472000004661000035
:10377c00756c0000740000004f43000020460000f0
:10378c00617500006c74000000460000617500005b
:10379c006c74000000450000787400002054000098
:1037ac00656d0000703a0000202500002e320000ec
:0837bc00660a00000000000095
:020000040000fa
:1037c4000000fa00113a8000f00b20000081600034
:1037d40060042000710520002374200080497800d3
:1037e40081497800824978004135800000fc2f002f
:1037f40080806000c0022000010070004035880015
:10380400f136800000fc2f00008060009000b300bf
:10381400f03688008136800000fc2f0000806000b4
:103824000030a000803688005136800000fc2f0054
:10383400008060007000b30050368800813680003c
:10384400f00f2c0080806000005020000100700008
:10385400803688003135800000fc2f000080600035
:10386400a000b30030358800103a800000017800d1
:103874000260a00060042000710520002374200071
:103884008049780081497800824978000080fa00f4
:10389400000006000000fa0041e2a90041a2a900cc
:1038a4004822ef008540a9009540a9004382a90061
:1038b4004362a9004342a9004322a90042c2a800ce
:1038c4004302a90042a2a8001112800030fe2f007a
:1038d400008060000040a0001012880011128000d7
:1038e400c0ff2f00008060000010a00010128800ac
:1038f4004422ef0041e2a8000080fa000000060024
:103904000000fa0020022000c01188008000280076
:103914008011880000402000901188000080fa0087
:10392400000006000400fa008e80e8008008780099
:103934000040eb00004f78008540a9004112800050
:103944000e00e800014878000e80e80010007800be
:10395400104078000080fb00401288000000000046
:103964002104800000402000008060000000e0008e
:10397400fbff320040128000004f78001e407800a8
:103984000080fa00000006000400fa008e80e800bf
:10399400804878000040eb00004f78000e80e8007b
:1039a400e0ff0700004f78001e4078000080fa0016
:1039b400000006000000fa00001280000080fa00f7
:1039c400000006001000fa006c01470000097800ae
:1039d4006e004700010878000000eb00000f78003b
:1039e400e3004700030009008058eb008040eb002f
:1039f4000e80e800014878006000b80068014700c4
:103a04000089be000e80e80010407800deff070049
:103a1400e3004700804878000e80e80010407800fa
:103a2400d9ff0700e4004700804878000e80e800d2
:103a340010407800d4ff0700e50047008048780074
:103a44000e80e80010407800cfff0700e600470032
:103a540080487800d7ff0700000f7800680047000f
:103a64009000780063004700104078000080fb005d
:103a74004800dd00810070006800470001087800fc
:103a84006800470090007800640047001040780008
:103a94000080fb0081007000680047000108780086
:103aa4006a004700900078006500470010407800e5
:103ab4000080fb004800dd00810070006a004700c0
:103ac400010878006a00470090007800660047000b
:103ad400104078000080fb00810070006a004700fd
:103ae4000108780068004700900078006c004700e7
:103af40010007800010878006a0047009000780000
:103b04006e00470010007800010878001e0078005d
:103b14000080fa00000006001400fa00889fbe002e
:103b24008000eb0070004700010878008000eb0083
:103b340072004700010878000040eb00004f780055
:103b44008040eb000e00e800014878008000eb00a4
:103b54000e80e800010878008000eb006a0047004e
:103b6400010878006000b800640147000089be00c5
:103b74008040eb0068004700014878006000b8000e
:103b84006c0147000089be000dff070041ff0700dc
:103b94005bff0700e842a900ea42a800ea42a90044
:103ba400f20047007000470086ff0700010028006c
:103bb400810f500086003a00720047001000780020
:103bc400640060000000e00002003200e0ba290056
:103bd4004af4070072004700100078006200600099
:103be4000000e0000200320080bb290043f407001b
:103bf4007200470010007800610060000040780007
:103c04000004e0000200320020bc29003bf407005d
:103c140070004700100078006100600000407800e8
:103c24000004e00002003200b0bc290033f40700b5
:103c340070004700100078000000e00002003d0022
:103c440010c0b300004f78007200470010007800e5
:103c54000000e00003003d0011c0b3000e00e800c6
:103c64000148780070004700100078004200de0030
:103c740080007800f0ff2100808060000e80e80062
:103c84000108780072004700100078004400de004c
:103c940080007800f07f2000808060006a00470088
:103ca400010878001e4078000004e000090032009a
:103cb4000e80e80090007800f0ff21000081600091
:103cc400020078000080ea008180ea000e81e800aa
:103cd400000978000e00e800104078000004e000bd
:103ce400090032006a00470090007800f07f20004d
:103cf40000816000020078000080ea008180ea0010
:103d04006a014700000978000e80e800100078007e
:103d1400cf80de00640147001201be0002004000b3
:103d240083804800640147000089be0068004700a2
:103d3400104078008040e80068004700014878009f
:103d4400680047009040780000c2b30080cf500064
:103d54001f003a00640047001000be00e00f50004e
:103d6400e08f580002003d007f004000e0804800e2
:103d74004b09dd004504de0008047100c58cde003b
:103d84000800be006af207000200200003e82300d6
:103d94006af207006c0147000089be006c0047000e
:103da4001000be00809fbe0010bd2900801f780057
:103db400c9f30700e68757008040eb00680047001e
:103dc400014878006000b800640147000089be0023
:103dd400ea42a80000102700210020003800070054
:043de4006eff370037
:020000040000fa
:103de80000080000020000000200000002000000bd
:103df800600800001000000002000000494e460064
:103e080000696e0066004e00414e00006e616e0053
:103e180000000000440800001c0000000200000030
:103e2800286e69006c29000068076c00094c830043
:103e38006a907400a07ac00000806800880084003e
:103e48006c820000810000000208000042000000af
:103e58000200000006080800080808000100030026
:103e68000000000000000000000000000000ea0060
:103e78001100000000000000008e11002811000051
:103e8800000000000000000000000000000000002a
:103e9800000000000000000000000000000000001a
:103ea8000000000000000000000000007008000092
:0c3eb800020000000000000000000000fc
:020000040000fa
:103ec400f03fb1000180b10006003500ee030900a7
:103ed40000000000403fb1000180b100fbff3d0045
:103ee4001000b000203fb00002003500008009003f
:083ef4000000000000000600c0
:020000040000fa
:020000040002f8
:04aff400ffff00005b
:020000040000fa
:020000040002f8
:04aff800bdf20000a6
:020000040000fa
:020000040002f8
:04affc007f3e000094
:00000001FF
